:020000040800F2
:10000000E80A00208D210008190600081B060008D8
:100010001F0600082306000827060008000000004D
:100020000000000000000000000000002B06000897
:100030002D060008000000002F0600083106000809
:10004000A7210008A7210008A7210008A721000870
:10005000A7210008A7210008A7210008A721000860
:10006000A7210008A7210008A7210008A721000850
:10007000A7210008A7210008A7210008A721000840
:10008000A7210008A7210008A7210008A721000830
:10009000A7210008A7210008A7210008A721000820
:1000A000A7210008A7210008A7210008A721000810
:1000B000A7210008A7210008A7210008A721000800
:1000C000A7210008A7210008A7210008A7210008F0
:1000D000A72100081120000837210008A7210008E7
:1000E000A7210008A7210008A7210008A7210008D0
:1000F000A7210008A7210008A7210008A7210008C0
:10010000A7210008A7210008A7210008A7210008AF
:10011000A7210008A7210008A7210008A72100089F
:10012000A7210008A7210008A7210008A72100088F
:10013000A7210008A7210008A7210008A72100087F
:10014000A7210008A7210008A7210008A72100086F
:10015000A7210008A7210008A7210008A72100085F
:10016000A7210008A7210008A7210008A72100084F
:10017000A7210008A7210008A7210008A72100083F
:10018000A7210008A721000800F002F800F044F8B9
:100190000AA090E8000C82448344AAF10107DA45E2
:1001A00001D100F039F8AFF2090EBAE80F0013F0F0
:1001B000010F18BFFB1A43F001031847C84700009E
:1001C000E8470000103A24BF78C878C1FAD852072F
:1001D00024BF30C830C144BF04680C6070470000C1
:1001E0000023002400250026103A28BF78C1FBD840
:1001F000520728BF30C148BF0B607047642904F024
:10020000AD82632904F04D83002070471FB504F0D0
:10021000B3FB1FBD10B510BD04F07EFB1146FFF708
:10022000F5FF00F009F804F09CFB03B4FFF7F2FFC0
:1002300003BC01F089FE000008B54FF4A06001F096
:10024000C5FFA82001F0FEFD4FF4E13001F08AFE69
:10025000D74801F01AFF00F0F5FA00F091FC5321A5
:1002600044F61F6000F00EFB00200323082219460D
:10027000009000F073FB00F005FD01F061FA002032
:10028000CC49C8608860486008600868C11700EB06
:100290001161090AC84A1170C6490868C11700EB04
:1002A00011610912A0EB01215170C2494868C117C0
:1002B00000EB1161090A9170BE494868C11700EB53
:1002C00011610912A0EB0121D170BA498868C117E8
:1002D00000EB1161090A1171B6498868C11700EB7A
:1002E00011610912A0EB01215171B249C868C1170F
:1002F00000EB1161090A9171AE49C868C11700EBA2
:1003000011610912A0EB0121D1710821104600F002
:100310008DFB0020A94908600868C11700EB116136
:10032000090AA74A1170A5490868C11700EB1161B5
:100330000912A0EB012151700221104600F0ABFB25
:100340000020A049086016E04FF47A71C80602F058
:10035000BCFD4FF47A71C80602F0BBFD4FF47A7110
:10036000C80602F0B8FD012001F0CEFD95480068F6
:10037000401C9449086093480068B0F57A7FE3DB3D
:1003800015E101F0FFF900F0C1FF00208D49086080
:1003900011E08D488B49096850F8210030B18B4835
:1003A000884A1268815C8AA004F06EF9854800686A
:1003B000401C84490860834800681028E9DB8648AF
:1003C00000F09EFB844800F09BFB834800F098FB04
:1003D000814800F095FB804800F092FB7E4890F841
:1003E00021007D4991F8201040EA01207B490860F6
:1003F000794890F8231090F8220041EA00207849CB
:100400000860754890F8251090F8240041EA002013
:10041000744908607148006840B108460368704834
:1004200002686E48016870A004F02EF96B480068FD
:100430007349086000206349086049E066486149E3
:10044000096800EBC100407863495E4A126811F800
:10045000321040EA01206B495A4A126841F82200E2
:100460005D485849096800EBC100C1785A48554AAF
:10047000126800EBC200807841EA00216248514ACC
:10048000126840F822104F49096850F82100B0F571
:10049000004F0BDB5C484B49096850F82100A0F580
:1004A00080305949474A126841F822005648454968
:1004B000096850F82100072190FBF1F05349414AA7
:1004C000126841F822003F480068401C3D4908601E
:1004D0003C4800680428B1DB0A2001F0E4F84C49EC
:1004E000087000203749086004E036480068401C66
:1004F0003449086033480068454909788842F4DB8C
:100500000A2001F001FD4348807848B94148C0788D
:10051000012805D140F2E241800702F0D6FC12E04A
:100520003C488078012809D13A48C078012805D193
:1005300040F27E41800702F0C8FC04E04FF47A717B
:10054000C80602F0C2FC3348007870B931484078E0
:1005500001280AD14FF4C861800702F0BAFC4FF4B9
:10056000C861080602F0B7FC1DE02A48007801289F
:100570000FD12848407801280BD14FF4AF61800794
:1005800002F0A7FC4FF4AF614FF0804002F0A3FCF3
:1005900009E04FF47A71C80602F09BFC4FF47A71BF
:1005A000C80602F098FC0821034800F03FFAE8E68C
:1005B000A0860100D8000020000000200C000020D0
:1005C0001400002028000020B4020020A800002011
:1005D00025630D0A00000000E8000020180000203C
:1005E0001C00002020000020526561645F616E677E
:1005F0006C653A256420202564202025640D0A00BE
:1006000008000020200100201001002030010020FF
:100610003100002022020020704700BFFEE700BF2B
:10062000FEE700BFFEE700BFFEE770477047704778
:10063000704700000CB500200190009076480068DB
:1006400040F480307449086000BF7348006800F4CB
:10065000003000900198401C0190009818B9019852
:10066000B0F5A04FF1D16C48006800F4003010B133
:100670000120009001E0002000900098012846D160
:1006800065484030006840F0805063494031086060
:100690006248006840F44040604908605E480830A5
:1006A00000685D49083108600846006840F4004071
:1006B00008600846006840F4A05008605848091FC8
:1006C0000860081F006840F08070091F086000BFC4
:1006D0005148006800F000700028F9D040F2057021
:1006E000504908604C480830006820F003004A492F
:1006F000083108600846006840F00200086000BF4A
:1007000045480830006800F00C000828F8D10CBDFE
:1007100010B54548006840F47000434908603E4801
:10072000006840F001003C49086000203A49083167
:100730000860394800683D490840374908603C482E
:10074000091D0860081F006820F48020091F086048
:10075000002031490C310860FFF76CFF4FF000605A
:1007600031498039086010BD70B500200022022395
:1007700000240221284D08352D6805F00C0020B119
:10078000042806D0082834D107E02A4D2A4E3560C7
:1007900033E02A4D284E35602FE01F4D2D1D2D686A
:1007A000C5F380541C4D2D1D2D6805F03F0154B13B
:1007B000224DB5FBF1F5184E361D3668C6F3881686
:1007C00005FB06F209E01B4DB5FBF1F5124E361D97
:1007D0003668C6F3881605FB06F20F4D2D1D2D68F1
:1007E000C5F301456D1C6B00B2FBF3F5124E35608D
:1007F00003E0104D104E356000BF00BF064D0835B8
:100800002D68C5F303150E4E705D0B4D2D68C54068
:10081000094E356070BD0000003802400070004095
:1008200008544007003C024088ED00E0FFFFF6FE60
:10083000103000240024F4003400002000127A005C
:10084000380000201CB50121202003F0CFF84FF420
:10085000C060009001208DF8040000208DF8060093
:1008600003208DF8050001208DF807006946044833
:1008700001F0A2FD4FF4C061014801F019FE1CBD5A
:100880000014024030B58BB004460D4601210846E5
:1008900003F0F5F80121084603F0A8F80122002131
:1008A0002D4801F014FE012202212B4801F00FFE19
:1008B00001220321284801F00AFE0F20099002209E
:1008C0008DF8280003208DF8290000208DF82A00DB
:1008D00001208DF82B0009A91F4801F06DFDA8B279
:1008E000ADF818000020ADF81A000794ADF820000C
:1008F00006A94FF0804002F0FAF86020ADF804003D
:100900000120ADF806000020ADF8100001A94FF05D
:10091000804002F081F901A94FF0804002F002FA14
:1009200001A94FF0804002F063FA0821C80602F0E6
:1009300000FB0821C80602F012FB0821C80602F0DD
:1009400017FB0121880702F03DF90121880702F019
:1009500057F90BB030BD0000000002402DE9F04116
:100960008AB004460D4616461F46DDF84080012138
:10097000084603F03BF80121480603F080F84FF4E5
:10098000C050089002208DF8240000208DF8260029
:1009900003208DF8250001208DF8270008A976484E
:1009A00001F00AFD09220B21734801F090FD092294
:1009B0000C21714801F08BFD00208DF81A008DF894
:1009C0001B008DF81C0001208DF81D0000208DF803
:1009D0001E008DF81F008DF816808DF817408DF8D9
:1009E00018608DF81950ADF8147005A9634803F02C
:1009F0006AF900208DF80E008DF80F0001208DF8A7
:100A000010000020ADF80400ADF80600ADF80800B5
:100A1000ADF80A00ADF80C0001208DF8110001A816
:100A200003F0DBF900200AB0BDE8F081F0B585B035
:100A300007460D4600244FF40070009000200190FE
:100A40008DF808008DF809008DF80A5000BF05E008
:100A5000395D0DF10B000155601C84B2AC42F7DB2F
:100A60006946464803F0A8FA0646002401E0601CE7
:100A700084B23146414803F037FB18B940F6FF70A5
:100A80008442F4DB40F6FF70844202DB012005B0B3
:100A9000F0BD0020FBE7F0B585B007460D46002409
:100AA00040F2FF100090002001908DF808008DF8B2
:100AB00009008DF80A5000BF05E0395D0DF10B000B
:100AC0000155601C84B2AC42F7DB69462B4803F049
:100AD00073FA0646002401E0601C84B231462748C0
:100AE00003F002FB18B940F6FF708442F4DB40F6D5
:100AF000FF70844202DB012005B0F0BD0020FBE75F
:100B000070B586B0064600211C4803F0CDFB10B935
:100B1000002006B070BD01AA0021184803F041FB77
:100B200040F201210198884201D1002414E040F2F2
:100B300002210198884201D101240DE040F20321F5
:100B40000198884201D1022406E00198B0F5017FA6
:100B500001D1032400E00424002506E00DF10F007C
:100B6000405D06EBC40148556D1C9DF80E00A8427F
:100B7000F4D89DF80E00CCE700000240006400406D
:100B80001CB50121112002F031FF1C200090002033
:100B90008DF8040003208DF8050001208DF8070072
:100BA0006946354801F008FC0120009002208DF8CC
:100BB00007006946314801F0FFFB1CBD10B5044633
:100BC00014B101202E4908702D480078002837D034
:100BD0001021294801F052FC78B10821264801F083
:100BE0004DFC50B10421244801F048FC28B10121FA
:100BF000224801F043FC012822D10A2001F084F9A7
:100C000000201F49087010211B4801F037FC08B96B
:100C1000012010BD0821184801F030FC08B902205D
:100C2000F7E70421144801F029FC08B90320F0E794
:100C30000121124801F022FC01281BD10420E8E721
:100C400010210D4801F01AFC012813D108210A488F
:100C500001F014FC01280DD10421074801F00EFC1D
:100C6000012807D10121054801F008FC10B9012035
:100C7000034908700020CCE7001002400000024049
:100C8000480000209FEDFE0AFE48006880ED000A43
:100C90009FEDFB0AFB48006880ED010A9FEDF80A12
:100CA000F848006880ED020A9FEDF50AF5480068F3
:100CB00080ED040A9FEDF20AF248006880ED030A15
:100CC000B2EE000AEF48006880ED050A9FEDEE0ADB
:100CD000EC48006880ED060A9FEDEC0AE9480068E0
:100CE00080ED070A9FEDE60AE948006880ED000AFA
:100CF0009FEDE30AE648006880ED010A9FEDE00AF7
:100D0000E348006880ED020A9FEDDD0AE0480068D4
:100D100080ED040A9FEDDA0ADD48006880ED030AE1
:100D2000B2EE000ADA48006880ED050A9FEDD60AA7
:100D3000D748006880ED060A9FEDD60AD4480068BF
:100D400080ED070A9FEDCE0AD348006880ED000AC7
:100D50009FEDCB0AD048006880ED010A9FEDC80ADC
:100D6000CD48006880ED020A9FEDC50ACA480068B8
:100D700080ED040A9FEDC20AC748006880ED030AAF
:100D8000B2EE000AC448006880ED050A9FEDC30A70
:100D9000C148006880ED060A9FEDBE0ABE480068A3
:100DA00080ED070A9FEDB60ABD48006880ED000A95
:100DB0009FEDB30ABA48006880ED010A9FEDB00AC2
:100DC000B748006880ED020A9FEDAD0AB44800689C
:100DD00080ED040A9FEDAA0AB148006880ED030A7D
:100DE000B2EE000AAE48006880ED050A9FEDAD0A3C
:100DF000AB48006880ED060A9FEDA40AA848006889
:100E000080ED070A9FED9E0AA748006880ED000A62
:100E10009FED9B0AA448006880ED010A9FED980AA7
:100E2000A148006880ED020A9FED950A9E4800687F
:100E300080ED040A9FED920A9B48006880ED030A4A
:100E40009FED8F0A9848006880ED050A9FED950A8E
:100E50009548006880ED060A9FED890A924800686F
:100E600080ED070A9FED910A8F48006880ED080A1F
:100E7000704700EE100AB8EEC00A824A126882ED8E
:100E8000000A804A1268D2ED000A00EE101AB8EE8D
:100E9000C00A30EEC00A7B4A126882ED020A794A23
:100EA000126892ED020A774A1268D2ED030A30EE18
:100EB000600A744A1268D2ED050A20EE200A714ACF
:100EC0001268D2ED060A6F4A126892ED021A00EE1D
:100ED000810A6C4A1268D2ED020A6A4A126892EDDF
:100EE000031AF0EE001A41EEC10A664A126892ED4A
:100EF000041A70EE810A634A126892ED071A01EE35
:100F0000200A6B4AD2ED000A30EE200A82ED000A78
:100F10005C4A126892ED030A5A4A126882ED040A8A
:100F2000584A126892ED020A564A126882ED030A84
:100F30005F4A92ED000A704700EE100AB8EEC00A50
:100F4000534A126882ED000A514A1268D2ED000A33
:100F500000EE101AB8EEC00A30EEC00A4C4A126811
:100F600082ED020A4A4A126892ED020A484A126861
:100F7000D2ED030A30EE600A454A1268D2ED050A46
:100F800020EE200A424A1268D2ED060A404A126850
:100F900092ED021A00EE810A3D4A1268D2ED020A71
:100FA0003B4A126892ED031AF0EE001A41EEC10AB4
:100FB000374A126892ED041A70EE810A344A1268B8
:100FC00092ED071A01EE200A3A4AD2ED000A30EEFD
:100FD000200A82ED000A2E4A126892ED030A2C4A7A
:100FE000126882ED040A2A4A126892ED020A284A1F
:100FF000126882ED030A2F4A92ED000A704700EE54
:10100000100AB8EEC00A244A126882ED000A224A89
:101010001268D2ED000A00EE101AB8EEC00A30EEE7
:10102000C00A1D4A126882ED020A1B4A126892ED3C
:10103000020A194A1268D2ED030A30EE600A164A13
:101040001268D2ED050A20EE200A134A1268D2ED8A
:10105000060A114A126892ED021A00EE810A0E4A3F
:101060001268D2ED020A0C4A126892ED031AF0EEF1
:10107000001A41EEC10A084A126892ED041A1BE0F8
:10108000000000004C0000200AD7A33DCDCC4C3D11
:10109000500000208FC2F53C540000200AD7233DA9
:1010A000580000200AD7A33C5C0000200AD7233C4C
:1010B000600000206400002070EE810AFE4A126881
:1010C00092ED071A01EE200AFC4AD2ED000A30EE3A
:1010D000200A82ED000AF84A126892ED030AF64AE5
:1010E000126882ED040AF44A126892ED020AF24A8A
:1010F000126882ED030AF14A92ED000A704700EE91
:10110000100AB8EEC00AEE4A126882ED000AEC4AF4
:101110001268D2ED000A00EE101AB8EEC00A30EEE6
:10112000C00AE74A126882ED020AE54A126892EDA7
:10113000020AE34A1268D2ED030A30EE600AE04A7E
:101140001268D2ED050A20EE200ADD4A1268D2EDBF
:10115000060ADB4A126892ED021A00EE810AD84AAA
:101160001268D2ED020AD64A126892ED031AF0EE26
:10117000001A41EEC10AD24A126892ED041A70EECA
:10118000810ACF4A126892ED071A01EE200ACD4A71
:10119000D2ED000A30EE200A82ED000AC84A126839
:1011A00092ED030AC64A126882ED040AC44A126824
:1011B00092ED020AC24A126882ED030AC14A92ED18
:1011C000000A704700EE100AB8EEC00ABE4A126864
:1011D00082ED000ABC4A126892ED001A00EE101A65
:1011E000B8EEC00A31EE400AB74A126882ED020A30
:1011F000B54A126892ED050AB34A126892ED021AD6
:1012000030EE010AB04A126882ED050AAE4A126851
:1012100092ED020AAC4A126892ED031A30EE410ACE
:10122000F0EE400AA84A126892ED060AA64A126831
:1012300092ED021A20EE010AA34A126892ED071AF3
:10124000A14A1268D2ED051A01EE210A9E4A1268DF
:1012500092ED081A01EE200A9C4A82ED000A9A4A91
:10126000126892ED030A984A126882ED040A964ABF
:10127000126892ED020A944A126882ED030A934AB8
:1012800092ED000AB7EE001AB4EEC10AF1EE10FAC0
:1012900008DB92ED000A9FED8E1A30EE010A82ED16
:1012A000000A2FE0894A92ED000ABFEE001AB4EE60
:1012B000C10AF1EE10FA08D892ED000A9FED851AE6
:1012C00030EE410A82ED000A1CE0804A92ED000AED
:1012D0009FED811AB4EEC10AF1EE10FA04DB9FED26
:1012E0007E0A82ED000A0DE0784A92ED000A9FED39
:1012F0007B1AB4EEC10AF1EE10FA03D89FED770A1B
:1013000082ED000A714A92ED000A70472DE9F04F14
:1013100087B04FF00A0A7248006850B971480068F7
:10132000C0F1000B7048006802906F48006801909F
:101330000EE06E4800684042C0EB001B6C4800683D
:10134000C0EB001002906A480068C0EB00100190EA
:1013500068480468684805682CB925B900263746EE
:10136000B146B04656E0002C0DDB002D0BDBA5424C
:1013700004DBA9462E462F1BB8464BE0A146264665
:101380002F1BB84646E0012C12DA002D10DB5B481B
:10139000844200DA04466042854204DB2F46A846B8
:1013A0002E19B14636E06742B8462E19B14631E0F3
:1013B000012C15DA012D13DA5048854200DA054672
:1013C0004E48844200DA0446A54204DBA146264684
:1013D0002F1BB8461EE02E1BB1462F46A84619E02B
:1013E000002C13DBB5F1FF3F10DA4448854200DAE8
:1013F00005466842844204DD6619B1466742B84634
:1014000008E06619B1462F46A84603E00026374695
:10141000B146B0465E44A8EB0B08A9EB0B095F444C
:1014200076427F42364801683046FFF722FDBDEE26
:10143000C00A8DED060A324841684046FFF77CFD40
:10144000BDEEC00A8DED050A2D4881684846FFF7BC
:10145000D6FDBDEEC00A8DED040A2948C1683846A4
:10146000FFF74DFEBDEEC00A8DED030A2548016869
:1014700041F67860FFF7A6FEBDEEC00A224880ED77
:10148000000A069800FB0AF04FF4206190FBF1F08F
:101490001E490870069800FB0AF04FF4206190FB8B
:1014A000F1F201FB120019494870059800FB0AF09F
:1014B0004FF420612CE00000540000206800002060
:1014C000580000206C0000205C000020700000200C
:1014D0000000964300000C440000FA440000FAC4E7
:1014E000740000208C000020880000209C00002058
:1014F0009800002084000020800000206CFBFFFF8B
:101500003001002008000020100000200000002012
:1015100090FBF1F030498870059800FB0AF04FF419
:10152000206190FBF1F201FB12002B49C870049876
:1015300000FB0AF04FF4206190FBF1F0264908719E
:10154000049800FB0AF04FF4206190FBF1F201FBDC
:10155000120021494871039800FB0AF04FF4206102
:1015600090FBF1F01C498871039800FB0AF04FF4DE
:10157000206190FBF1F201FB12001749C8710821AC
:101580001548FFF753FA15490868C11700EB1161B8
:10159000090A134A117011490868C11700EB11615B
:1015A0000912A0EB012151700E490868C11700EB28
:1015B0001161090A91700B490868C11700EB1161AC
:1015C0000912A0EB0121D17004211046FFF763FA44
:1015D00007B0BDE8F08F0000000000200C000020E4
:1015E000140000201000002030B503461C788C54F5
:1015F0005D78541C0D559D78941C0D55DD78D41CD8
:101600000D5530BD11B52DED020B04460A2C00DC42
:1016100004B91EBD0B2C43D2DFE804F042060C12C5
:10162000181E242A30363C00012244496846FFF740
:10163000DBFF35E0052241496846FFF7D5FF2FE083
:1016400009223E496846FFF7CFFF29E00D223B49BA
:101650006846FFF7C9FF23E0112238496846FFF7C3
:10166000C3FF1DE0152235496846FFF7BDFF17E0AF
:10167000192232496846FFF7B7FF11E01D222F49B2
:101680006846FFF7B1FF0BE021222C496846FFF7BF
:10169000ABFF05E0252229496846FFF7A5FF00BFFB
:1016A00000BF00BFB5E701460A2900DC09B90020E8
:1016B00070472420214A10700B293CD2DFE801F04A
:1016C0003B060B10151A1F24292F350005201B4A35
:1016D00050710620ECE70920184A50720A20E7E70B
:1016E0000D20164A50730E20E2E71120134A507461
:1016F0001220DDE71520114A50751620D8E7192071
:101700000E4A50761A20D3E71D200C4A50771E202F
:10171000CEE72120094A82F821002220C8E72520AF
:10172000064A82F825002620C2E72920034A82F8CB
:1017300029002A20BCE700BF0020B9E7E40100200F
:10174000002003E00021F94A1154401C2428F9DB51
:10175000002003E00021F64A1154401C0828F9DB60
:101760000021F44A1160F44A1160F44A1160F44A0D
:101770001160F44A1180F44A1180F44A1180F44A4D
:101780001180704770B5F348006800287ED026E0CD
:101790002324002502E0641E04B904E0601EE3492E
:1017A000085CD928F7D100BF4CB1E048005D502853
:1017B00005DD4FF48071E84800F07CFE10E04FF446
:1017C0008071E54800F076FE642000F09DFB4FF448
:1017D0008071E14800F06CFE642000F095FBD7E7D3
:1017E00000BF002505E0D148005DD14948556D1C7A
:1017F000641E122DF7DB00243EE0CD48005D00F0B2
:101800000100D64901EBC401C871C948005DC0F3AD
:101810004000D24901EBC4018871C548005DC0F3A6
:101820008000CE4901EBC4014871C148005DC0F39E
:10183000C000CA4901EBC4010871BD48005DC0F396
:101840000010C64901EBC401C870B948005DC0F37F
:101850004010C24901EBC4018870B548005DC0F377
:101860008010BE4901EBC4014870B148005DC00959
:10187000BA4901F83400641C122CBEDBB74800786A
:1018800001280ED1B5484078012800E0B9E108D11F
:101890000020B34908700120B24908700020B24905
:1018A0000870AE48007850B9AC484078012806D19D
:1018B000AB4908700020AB490870AB490870A748D5
:1018C000007801280AD1A548407838B90020A449F9
:1018D0000870A44908700120A34908709F488078C7
:1018E00001280CD19D48C078012808D100209F49CB
:1018F000087001209E49087000209E490870974892
:10190000807850B99548C078012806D19749087069
:1019100000209749087097490870904880780128FE
:101920000AD18E48C07838B9002090490870904993
:10193000087001208F4908707D48C07840017C49BB
:10194000097940EAE100C0F30A007E49088078483E
:1019500040797749097940EA0120C0F30A007A49C1
:10196000088073480078C0017149497840EA6100F5
:10197000C0F30A00754908806D48407880026C49C0
:10198000897840EA81006A49C97840EAA110C0F329
:101990000A006F4908806B480088A0F5806065499F
:1019A000086069480088A0F580606349086067485E
:1019B0000088A0F580606149086065480088A0F54E
:1019C00080605F4908605A48807A18B101206A49EE
:1019D000086002E00020684908605548C07A18B1E4
:1019E00001206649086002E0002064490860504810
:1019F000C07B4F49897B40EA0120614908604C481F
:101A0000407C4B49097C40EA01205E490860084659
:101A1000006847F23051884205DD5A480068A0F559
:101A20008030584908605648006847F23051884273
:101A300005DD53480068A0F58030514908604748EB
:101A400090F8490018B101204F49086002E00020D9
:101A50004D490860414890F84F0018B101204A49AB
:101A6000486002E00020484948603C4890F848003F
:101A700018B101204449886002E000204249886092
:101A8000364890F8470018B101203F49C86002E08D
:101A900000203D49C860314890F84D0018B1012040
:101AA0003949086102E00020374908612B4890F865
:101AB0004E0018B101203449486102E0002032494B
:101AC0004861264890F84C0018B101202E498861E1
:101AD00002E000202C498861204890F8460018B1A7
:101AE00001202949C86102E000202749C8611B483C
:101AF00090F8450018B101202349086202E0002057
:101B000021490862154890F8440018B101201E4987
:101B1000486202E000201C494862104890F84300E7
:101B200018B101201849886233E02FE0BC0300207F
:101B30001002002080000020840000208800002087
:101B40008C000020780000207A0000207C0000201B
:101B50007E000020740000200014024022020020B9
:101B600090000020910000209200002093000020AF
:101B70009400002095000020A4000020A000002078
:101B8000980000209C000020B402002000209B4907
:101B900088629B4890F8420018B101209749C862BA
:101BA00002E000209549C862954890F8410018B1BC
:101BB00001209249086302E00020904908639048A0
:101BC00090F8400018B101208C49486302E00020E1
:101BD0008A4948638A4890F84B0018B10120874928
:101BE000886302E0002085498863854890F84A00B0
:101BF00018B101208149C863FFE000207F49C86314
:101C0000FBE0232402E0641E04B903E07D48005D8C
:101C10000028F8D000BF002CEED0002505E0794860
:101C2000005D794948556D1C641E062DF7DB0024C4
:101C30003EE07548005D00F00100714901EBC40110
:101C4000C8717148005DC0F340006D4901EBC401EB
:101C500088716D48005DC0F38000694901EBC401E3
:101C600048716948005DC0F3C000654901EBC401DB
:101C700008716548005DC0F30010614901EBC401C3
:101C8000C8706148005DC0F340105D4901EBC401BC
:101C900088705D48005DC0F38010594901EBC401B4
:101CA00048705948005DC009554901F83400641C6A
:101CB000062CBEDB5248007801280CD150484078F1
:101CC000012808D1002051490870012050490870AE
:101CD0000020504908704A48007850B94848407878
:101CE000012806D14949087000204949087049492E
:101CF00008704348007801280AD14148407838B933
:101D0000002042490870424908700120414908708A
:101D10003B48807801280CD13948C078012808D187
:101D200000203D49087001203C49087000203C49D2
:101D300008703348807850B93148C078012806D1FE
:101D400035490870002035490870354908702C481D
:101D5000807801280AD12A48C07838B900202E4955
:101D600008702E49087001202D4908702648C07857
:101D700040012549097940EAE100C0F30A002949F8
:101D80000880214840792049097940EA0120C0F3C0
:101D90000A00254908801C480078C0011A49497882
:101DA00040EA6100C0F30A002049088016484078E4
:101DB00080021549897840EA81001349C97840EAD0
:101DC000A110C0F30A001A49088016480088A0F53F
:101DD00080601849086014480088A0F580601649A2
:101DE000086012480088A0F5806014490860104817
:101DF0000088A0F580601249086070BDB402002020
:101E000022020020BC0300201002002090000020CD
:101E100091000020920000209300002094000020F8
:101E200095000020780000207A0000207C0000202F
:101E30007E00002080000020840000208800002018
:101E40008C00002010B504466FF0040000F010FA7A
:101E5000E11704EB5171C1F3C701394A1170104603
:101E6000007800EB4001C1EBC0104FF6FF7101EAB2
:101E7000C0003449088010BD0146314A12784A43F7
:101E80004FF0E0235A6100229A611A46126942F02B
:101E900001021A6100BF4FF0E022106900F0010258
:101EA0001AB100F48032002AF5D04FF0E022126916
:101EB00022F001024FF0E0231A6100229A6170477C
:101EC0000146204A12884A434FF0E0235A6100221B
:101ED0009A611A46126942F001021A6100BF4FF07E
:101EE000E022106900F001021AB100F48032002AE9
:101EF000F5D04FF0E022126922F001024FF0E0230A
:101F00001A6100229A61704770B504464FF4077059
:101F100094FBF0F0C6B24FF4077094FBF0F100FBB5
:101F2000114085B205E04FF40770FFF7C9FF701E3E
:101F3000C6B2002EF7D115B12846FFF7C1FF70BD1C
:101F4000B8000020BA000020014600BF704700BF63
:101F5000864A128802F04002002AF9D0C2B2834BAE
:101F60009A80704710B588B004460121084601F0F8
:101F70003DFD0121102001F093FD072209217C483D
:101F800000F0A5FA07220A21794800F0A0FA4FF4E0
:101F9000C060069002208DF81C008DF81D00002006
:101FA0008DF81E0001208DF81F0006A9704800F072
:101FB00003FA02940020ADF80C00ADF80E00ADF865
:101FC0001000ADF814000C20ADF8120002A967480B
:101FD00000F01DFB0121654800F0A1FB4021634892
:101FE00000F085FC012240F22551604800F04DFCD4
:101FF00025208DF8040003208DF805008DF80600DB
:1020000001208DF8070001A800F0E5F808B010BD28
:1020100010B540F22551554800F072FC10B35348FA
:1020200000F0ACFBC4B25348008800F40040C8B9CB
:102030005048008800F4804060B10A2C03D0002092
:102040004C49088020E04B48008840F40040494952
:10205000088019E00D2C06D14648008840F48040E5
:102060004449088010E043480088C0F30D0042490D
:102070000C5440480088401C3E49088008460088AF
:10208000C72801DD0020088010BD10B588B00446C7
:102090000121082001F0AAFC0121480401F0EFFC15
:1020A00007220521354800F012FA0722062133489D
:1020B00000F00DFA6020069002208DF81C008DF8CB
:1020C0001D0000208DF81E0001208DF81F0006A9BC
:1020D0002A4800F071F902940020ADF80C00ADF828
:1020E0000E00ADF81000ADF814000C20ADF8120091
:1020F00002A9234800F08BFA0121214800F00FFBD0
:1021000040211F4800F0F3FB012240F225511C48FA
:1021100000F0BBFB26208DF8040003208DF805009D
:1021200002208DF8060001208DF8070001A800F0BC
:1021300052F808B010BD10B540F22551104800F01B
:10214000DFFB90B10E4800F019FBC4B20D480E49F8
:10215000096844540C480068401C0B490860084654
:102160000068242801D10020086010BD0010014043
:1021700000000240C0000020F4020020000C0240D9
:1021800000440040BC030020C400002009488047F0
:1021900009480047FEE7FEE7FEE7FEE7FEE7FEE749
:1021A000FEE7FEE7FEE7FEE704480549054A064B61
:1021B000704700001107000889010008E8040020AA
:1021C000E80A0020E8060020E80600203249014322
:1021D000324A1160704770B5002100230F22C47885
:1021E0001CB32E4C246804F4E064C4F5E064C4F32A
:1021F0000721C1F10404E3B20A4144789C40E1B2F2
:102200008478144021430C07210E254C0578615534
:10221000047804F01F050124AC4005786D11AD0071
:1022200005F1E025C5F8004109E0047804F01F0538
:102230000124AC401B4D0678761145F8264070BD50
:10224000194A0A400243154B1B1F1A60704739B1E7
:10225000124A121D12680243104B1B1D1A6006E041
:102260000E4A121D126882430C4B1B1D1A607047E8
:10227000042808D14FF0E021096941F004014FF032
:10228000E022116107E04FF0E021096921F004012B
:102290004FF0E022116170470000FA050CED00E0FC
:1022A00000E400E080E100E080FFFF1F10B504467D
:1022B0009848844208D10121084601F002FC00211F
:1022C000012001F0FEFB76E09348844208D1012111
:1022D000022001F0F6FB0021022001F0F2FB6AE08F
:1022E0008E48844208D10121042001F0EAFB00213C
:1022F000042001F0E6FB5EE08948844208D1012118
:10230000082001F0DEFB0021082001F0DAFB52E09A
:102310008448844208D10121102001F0D2FB002121
:10232000102001F0CEFB46E07F48844208D1012115
:10233000202001F0C6FB0021202001F0C2FB3AE082
:102340007A48844208D10121402001F0BAFB0021E3
:10235000402001F0B6FB2EE07548844208D10121EF
:10236000802001F0AEFB0021802001F0AAFB22E0DA
:102370007048844208D10121801501F0A2FB0021A0
:10238000A01501F09EFB16E06B48844208D10121A4
:10239000401501F096FB0021601501F092FB0AE068
:1023A0006648844207D10121001501F08AFB002113
:1023B000201501F086FB10BDF0B50A460021002370
:1023C000002400BF3DE0012505FA01F3156805EA88
:1023D00003049C4234D105684F000326BE40B54338
:1023E000056015794E00B5400668354305601579DE
:1023F000012D02D01579022D16D185684F000326D4
:10240000BE40B543856055794E00B540866835437A
:102410008560456801268E40B543456045689679DC
:102420008E40B6B235434560C5684F000326BE40B6
:10243000B543C560D5794E00B540C6683543C56023
:10244000491C1029BFD3F0BD4FF6FF710160002178
:10245000017141718171C171704708B54FF48032CB
:102460000092009A0A430092009AC261C161009AE8
:10247000C261C2690092C269009208BD0246002092
:1024800013690B400BB1012000E0002070470146AA
:10249000086980B270470246002053690B400BB1B7
:1024A000012000E0002070470146486980B2704773
:1024B00001837047418370470AB1018300E0418383
:1024C00070474161704742694A4042617047F0B5C8
:1024D000002300244D07ED0E02FA05F3CE1000F1A3
:1024E000200555F826504E07F70E0F26BE40B5437F
:1024F000CF1000F1200646F82750CE1000F120053D
:1025000055F8265045EA0304CE1000F1200545F8A1
:102510002640F0BD000002400004024000080240D6
:10252000000C02400010024000140240001802405B
:10253000001C02400020024000240240002802400B
:1025400010B50446FA48844208D10121102001F058
:10255000FCFA0021102001F0F8FA57E0F548844217
:1025600009D10121480401F0DFFA00214FF40030C5
:1025700001F0DAFA4AE0F048844209D101218804E6
:1025800001F0D2FA00214FF4802001F0CDFA3DE0B5
:10259000EA48844209D10121C80401F0C5FA0021AA
:1025A0004FF4002001F0C0FA30E0E548844209D140
:1025B0000121080501F0B8FA00214FF4801001F064
:1025C000B3FA23E0DF48844208D10121202001F042
:1025D000BCFA0021202001F0B8FA17E0DA48844262
:1025E00009D10121880701F09FFA00214FF08040B6
:1025F00001F09AFA0AE0D548844207D1012140054A
:1026000001F092FA0021600501F08EFA10BD2DE96B
:10261000FF4705460E460024A14600BFA046B089EC
:1026200000B100BF2C8A24F44054F08804432C826B
:10263000AC8941F20C608443B088318908437189C8
:1026400008430443AC81AC8A24F44074B089044349
:10265000AC82684601F0F9F8B548854202D0B94825
:10266000854202D1DDF80C9001E0DDF80890A889E0
:1026700000F4004040B109EBC90000EB09103168DB
:102680004900B0FBF1F707E009EBC90000EB0910C6
:1026900031688900B0FBF1F76420B7FBF0F004016A
:1026A0002009642101FB1078A88900F4004040B1A2
:1026B000322000EBC800B0FBF1F000F0070004434B
:1026C00008E0322000EB08106421B0FBF1F000F0CC
:1026D0000F0004432C81BDE8FF874FF416510160C1
:1026E00000218180C18001810C21418100218181F3
:1026F000704710B502460020108A20F470600B88E5
:102700004C8823438C882343CC882343184310826E
:1027100010BD0021018041808180C180704721B1BE
:10272000828942F40052828104E082894DF6FF736F
:102730001A4082817047028B02F47F420283028B2F
:102740000A430283704721B1828942F400428281A8
:1027500003E08289C2F30E028281704721B1828A2E
:1027600042F40062828204E0828A4FF2FF731A40D0
:1027700082827047C1F308028280704701468888D0
:10278000C0F308007047028A4FF6F0731A400282C5
:10279000028A0A430282704721B1828942F0020212
:1027A000828104E082894FF6FD731A40828170476E
:1027B00082894FF2FF731A40828182890A438281A3
:1027C0007047028A4FF6DF731A400282028A0A4378
:1027D0000282704721B1028A42F48042028204E000
:1027E000028A4BF6FF731A4002827047818941F0DA
:1027F00001018181704721B1828A42F00802828200
:1028000004E0828A4FF6F7731A4082827047028B87
:10281000D2B20283028B42EA01220283704721B1C5
:10282000828A42F02002828204E0828A4FF6DF73BD
:102830001A408282704721B1828A42F0100282825D
:1028400004E0828A4FF6EF731A4082827047828AD0
:102850004FF6FB731A408282828A0A438282704753
:1028600021B1828A42F00202828204E0828A4FF61B
:10287000FD731A40828270471AB1838A0B438382A8
:1028800002E0838A8B4383827047F0B503460024BD
:1028900000260025002040F66A17B94200D100BF8B
:1028A0001846C1F3421401F01F06012707FA06F586
:1028B000012C01D10C3004E0022C01D1103000E0D9
:1028C00014301AB107682F43076002E00768AF436E
:1028D0000760F0BD02460020B1F5007F00D100BFC7
:1028E00013880B400BB1012000E00020704701F479
:1028F0000072B2F5007F00D100BFCA43028070476A
:1029000070B50246002400230025002040F66A1618
:10291000B14200D100BFC1F3421501F01F030126EF
:1029200006FA03F3012D13D19689334017E0000016
:10293000001001400044004000480040004C0040AE
:10294000005000400014014000780040007C00402E
:10295000022D02D1168A334001E0968A33400C12D0
:10296000012606FA04F41688344013B10CB1012094
:1029700000E0002070BD10B50022002340F66A146C
:10298000A14200D100BF0A1201249440A3B2DC434B
:10299000048010BD10B50446FE48844208D10121D0
:1029A000084601F0D2F80021012001F0CEF89DE0A8
:1029B000B4F1804F08D10121084601F0B5F800219B
:1029C000012001F0B1F891E0F348844208D10121DF
:1029D000022001F0A9F80021022001F0A5F885E00D
:1029E000EE48844208D10121042001F09DF8002125
:1029F000042001F099F879E0E948844208D10121E6
:102A0000082001F091F80021082001F08DF86DE018
:102A1000E448844208D10121102001F085F800210A
:102A2000102001F081F861E0DF48844208D10121E3
:102A3000202001F079F80021202001F075F855E000
:102A4000DA48844208D10121022001F07EF80021F9
:102A5000022001F07AF849E0D548844209D10121E9
:102A6000080401F072F800214FF4803001F06DF895
:102A70003CE0D048844209D10121480401F065F8C6
:102A800000214FF4003001F060F82FE0CA48844282
:102A900009D10121880401F058F800214FF4802069
:102AA00001F053F822E0C548844208D101214020BA
:102AB00001F03AF80021402001F036F816E0C04855
:102AC000844208D10121802001F02EF800218020CD
:102AD00001F02AF80AE0BB48844207D101218015A1
:102AE00001F022F80021A01501F01EF810BD00220F
:102AF0000288A84B98420ED0AC4B98420BD0B0F154
:102B0000804F08D0A44B984205D0A44B984202D0E5
:102B1000A34B984204D14FF68F731A404B881A4347
:102B2000A04B984207D0A04B984204D04FF6FF43E9
:102B30001A400B891A4302804B68C3620B880385D5
:102B4000944B984202D0994B984201D18B7A0386DC
:102B50000123838270474FF0FF31416000210180E3
:102B600001814180817270470185828270470A46E7
:102B7000002101884FF68F7319401143018070477F
:102B800041627047C16270470146486A704701461A
:102B9000088D704721B1028842F00202028004E0F1
:102BA00002884FF6FD731A400280704721B10288F7
:102BB00042F00402028004E002884FF6FB731A40E0
:102BC0000280704721B1028842F08002028004E056
:102BD00002884FF67F731A400280704702884FF6D2
:102BE000F7731A40028002880A4302807047028805
:102BF0004FF6FF431A40028002880A430280704762
:102C000021B1028842F00102028004E002884FF6FE
:102C1000FE731A400280704770B500240022002322
:102C2000058C4FF6FE7635400584028C8388048B34
:102C30004FF68F752C40B51E2C400D882C43751E09
:102C40002A408D892A434D882A43524DA84202D0FA
:102C5000564DA84213D14FF6F7752A40CD892A4325
:102C60004FF6FB752A408D882A434FF6FF652B40AF
:102C70004FF6FF552B400D8A2B434D8A2B43838003
:102C800004838D684563028470BD70B50024002202
:102C90000023058C4FF6EF7635400584028C83883F
:102CA000048B48F6FF752C404FF6FF452C400D88ED
:102CB0004FF6FF7606EA05252C434FF6DF752A40CE
:102CC0008D8906EA05152A434D8806EA05152A432B
:102CD000304DA84202D0354DA8421DD14FF67F7528
:102CE0002A40CD894FF6FF7606EA05152A434FF6AE
:102CF000BF752A408D8806EA05152A434FF6FF3531
:102D00002B404FF2FF752B400D8A06EA85052B43B9
:102D10004D8A06EA85052B43838004838D6885638D
:102D2000028470BD70B5002400220023058C4FF68C
:102D3000FF6635400584028C8388848B4FF68F753F
:102D40002C404FF6FC752C400D882C434FF6FF5558
:102D50002A408D894FF6FF7606EA05252A434D88DD
:102D600006EA05252A430B4DA84202D00F4DA84282
:102D700038D14FF2FF752A40CD894FF6FF7606EA2B
:102D800005252A434FF6FF352A408D8806EA05259A
:102D90002A4319E000000140000400400008004000
:102DA000000C0040001000400014004000040140EE
:102DB000004001400044014000480140001800402C
:102DC000001C0040002000404EF6FF752B404DF6E1
:102DD000FF752B400D8A06EA05152B434D8A06EA3E
:102DE00005152B43838084838D68C563028470BD81
:102DF00070B5002200230024058C4EF6FF76354086
:102E00000584038C8488828B48F6FF752A404FF630
:102E1000FF452A400D884FF6FF7606EA05252A432E
:102E20004DF6FF752B408D8906EA05352B434D88FD
:102E300006EA05352B43FE4DA84202D0FD4DA842BF
:102E400008D14BF6FF752C400D8A4FF6FF7606EA47
:102E500085152C43848082838D680564038470BD4E
:102E6000002101804180818081608181C181018256
:102E70004182704770B50346002000241846183080
:102E800001258D40ACB21D8CA5431D8409B10829D4
:102E90000AD100EB610005684FF68F76354005607A
:102EA0000568154305600FE00D1FC5F34E05284466
:102EB000056848F6FF763540056005684FF6FF76F1
:102EC00006EA02263543056070BD416370478163A1
:102ED0007047C1637047016470470A460021018B47
:102EE0004FF68F7319401143018370470A46002142
:102EF000018B48F6FF7319404FF6FF7303EA022374
:102F00001943018370470A460021818B4FF68F7366
:102F100019401143818370470A460021818B48F68E
:102F2000FF7319404FF6FF7303EA022319438183AD
:102F300070470A460021018B4FF6F7731940114381
:102F4000018370470A460021018B4FF2FF7319403D
:102F50004FF6FF7303EA02231943018370470A46C1
:102F60000021818B4FF6F77319401143818370471D
:102F70000A460021818B4FF2FF7319404FF6FF7311
:102F800003EA02231943818370470A460021018B1B
:102F90004FF6FB7319401143018370470A46002125
:102FA000018B4FF6FF3319404FF6FF7303EA0223FC
:102FB0001943018370470A460021818B4FF6FB734A
:102FC00019401143818370470A460021818B4FF6D7
:102FD000FF3319404FF6FF7303EA0223194381833D
:102FE00070470A460021018B4FF67F731940114349
:102FF000018370470A460021018BC1F30E014FF691
:10300000FF7303EA02231943018370470A46002134
:10301000818B4FF67F7319401143818370470A46B5
:103020000021818BC1F30E014FF6FF7303EA0223E7
:103030001943818370470A460021018C4FF6FD73C6
:1030400019401143018470470A460021018C4FF654
:10305000F77319401143018470470A460021018C1F
:103060004FF6DF7319404FF6FF7303EA021319435B
:10307000018470470A460021018C4FF67F73194086
:103080004FF6FF7303EA02131943018470470A469F
:103090000021018C4FF6FF5319404FF6FF7303EAEE
:1030A00002231943018470470A460021018C4FF224
:1030B000FF7319404FF6FF7303EA0223194301849B
:1030C00070470A460021018C4DF6FF7319404FF6F8
:1030D000FF7303EA023319430184704730B50023BC
:1030E00001248C40A3B2048C9C430484048C02FA17
:1030F00001F5ADB22C43048430BD30B50023042467
:103100008C40A3B2048C9C430484048C02FA01F525
:10311000ADB22C43048430BD828B4FF2FF331A4092
:103120008283828B4FF6FF7303EA01231A43828363
:103130007047F0B50C461546002100220026078C8A
:103140004EF6FF7C07EA0C070784818B028C4FF652
:10315000FF7707EA043640F6FF4739404FF6FF771E
:1031600007EA052739434FF6FF7707EA0337394364
:1031700045F6FF773A4046F480573A43818302840C
:10318000F0BD828B4FF6F3731A408283828B0A4321
:1031900082837047F0B50C461546002100220026B8
:1031A000078C4FF6FF6C07EA0C070784818B028CB3
:1031B0004FF6FF7707EA04264FF60C7739404FF6B3
:1031C000FF7707EA03172F4339434FF2FF573A407F
:1031D00046F480773A4381830284F0BD028B4FF23C
:1031E000FF331A400283028B4FF6FF7303EA012379
:1031F0001A4302837047F0B50C46154600210022A1
:103200000026078C4FF6EF7C07EA0C070784018B3A
:10321000028C4FF6FF7707EA041640F6FF47394065
:103220004FF6FF7707EA033739434FF6FF7703E09E
:10323000000001400004014007EA052739434FF62A
:103240005F773A4046F010073A4301830284F0BDAD
:10325000028B4FF6F3731A400283028B0A430283F8
:103260007047F0B50C46154600210022068C4FF63B
:10327000FE773E400684018B028C4FF60C7631407F
:103280007E1C06EA03162E4331434FF6F576324094
:1032900044F00106324301830284F0BD70B5054657
:1032A0000C46208850B92389A28861882846FFF7F8
:1032B000D8FFE1882846FFF7CBFF25E020880428C7
:1032C0000AD12389A28861882846FFF794FFE18804
:1032D0002846FFF783FF17E0208808280AD12389B2
:1032E000A28861882846FFF755FFE1882846FFF746
:1032F00048FF09E02389A28861882846FFF719FF63
:10330000E1882846FFF708FF70BD00210180418059
:10331000012181800021C180018170472DE9F041A8
:1033200005460C4600260127608808B9022600E001
:103330000026A088012801D1022700E0012720886B
:10334000A0B92389A28861882846FFF78AFFE1880F
:103350002846FFF77DFF23893A4631462846FFF786
:103360004AFFE1882846FFF739FF13E02389A28846
:1033700061882846FFF73FFFE1882846FFF72EFFC8
:1033800023893A4631462846FFF76BFFE1882846F5
:10339000FFF75EFFBDE8F0810146486B70470146CC
:1033A000886B70470146C86B70470146086C7047D0
:1033B0000A884B881A438B881A43CB881A430B8997
:1033C0001A434B891A438B891A43A0F8442070474B
:1033D0000021018041808180C18001814181818102
:1033E000704731B1B0F8442042F40042A0F84420C4
:1033F00005E0B0F84420C2F30E02A0F84420704764
:1034000021B1828842F00402828004E082884FF673
:10341000FB731A408280704721B1828842F001021A
:10342000828004E082884FF6FE731A4082807047E3
:103430001AB183890B43838102E083898B438381A3
:1034400070478182704702460020138A0B400BB1FF
:10345000012000E000207047CA430282704730B567
:103460000246002000230024158A05EA01039589FD
:1034700005EA010413B10CB1012000E0002030BDC9
:10348000CA430282704741EA0203A0F848307047FD
:103490001AB183890B43838102E083898B43838143
:1034A000704721B1828842F00802828004E082885D
:1034B0004FF6F7731A408280704701894FF6F87211
:1034C0001140018170470A46002101894FF68F7330
:1034D000194011430181704730B504460D46294615
:1034E0002046FFF7F0FF208940F00700208130BD23
:1034F0002DE9F04104460D4616461F46602D06D1C3
:103500003B46012231462046FFF775FE05E03B466B
:10351000012231462046FFF7A4FE29462046FFF748
:10352000D2FF208940F007002081BDE8F08130B54E
:103530000C4600210189C9B24FF6FF7505EA032543
:10354000154325432943018130BD2DE9F04105464E
:103550000E4617469846002443463A4631462846CA
:10356000FFF7E5FF2C894FF6F870044044F007049C
:103570004FF68F70044044F070042C81BDE8F08158
:10358000F0B504460D4616461F463B4632462946D0
:103590002046FFF7CCFF208940F480402081F0BD19
:1035A00082884FF68F731A40828082880A43828015
:1035B000704702894FF6F8731A40028102890A4364
:1035C0000281704702894FF67F731A400281028997
:1035D0000A4302817047F0B50C4615461E4600218D
:1035E000002200230189028B038C4FF6F8773940C3
:1035F00021434FF6FC473A4040F201173A434FF659
:10360000DD773B404FF6FF7707EA06172F433B4332
:10361000018102830384F0BD21B1828842F08002DF
:10362000828004E082884FF67F731A408280704760
:10363000A0F8501070470000F948006840F0010001
:10364000F74908600020F64908310860F44800682E
:10365000F4490840F2490860F348091D0860F3483E
:10366000EF4984310860F0481038091D0860EC48C3
:10367000006820F48020EA4908600020E8490C3105
:103680000860E7498C31086070470021E44A921CC9
:10369000117011460870704710B5014600220023D2
:1036A00000204A11012A02D1DD4C236808E0022AD9
:1036B00003D1DB4C7034236802E0D94C74342368A6
:1036C00001F01F02012494401C400CB1012000E0D5
:1036D000002010BD38B5002000900024002500BF58
:1036E0003120FFF7D9FF05460098401C0090009854
:1036F000B0F5A04F01D0002DF2D03120FFF7CCFF64
:1037000008B1012400E00024204638BD0146002015
:10371000C34A106820F0F80040EAC100106070470A
:10372000C349086070470021BD4A703211701170A2
:10373000012802D004280AD104E00121B84A7032DD
:10374000117005E00521B64A7032117000E000BF2B
:1037500000BF7047B7490860704770B5049C41EAE4
:1037600082150126C6EB530645EA0645054345EAA0
:103770000465AB4E361D356070BDAD4908667047B7
:10378000820142EA0172A64B84331A607047A8494D
:103790008866704710B5830143EA016343EA027308
:1037A0009F4C8834236010BDA14908677047A04929
:1037B000C864704702460020994B0833186820F00F
:1037C000EC6042EA01031843954B083318607047D8
:1037D00002460020924B0833186820F0784042EAF5
:1037E000010318438E4B08331860704701460020D0
:1037F0008B4A0832106820F00300084310607047BD
:1038000087480830006800F00C007047014600202F
:10381000834A0832106820F0F000084310607047B7
:10382000014600207E4A0832106820F4E050084328
:103830001060704701460020794A0832106820F471
:10384000604040EAC10010607047F0B500210022DE
:103850000024022500260223714F08373F6807F035
:103860000C0121B1042905D0082937D105E0724F98
:10387000076036E0714F076033E0694F3F1D3F68D6
:10388000C7F38056664F3F1D3F6807F03F036EB198
:103890006A4FB7FBF3F7DFF888C10CF1040CDCF8D2
:1038A00000C0CCF3881C07FB0CF40CE0624FB7FBA4
:1038B000F3F7DFF86CC10CF1040CDCF800C0CCF3BA
:1038C000881C07FB0CF4564F3F1D3F68C7F30147A8
:1038D0007F1C7D00B4FBF5F7076002E0564F0760E0
:1038E00000BF00BF4E4F08373F6807F0F0010909DD
:1038F000534F7A5C0768D7404760494F08373F68A5
:1039000007F4E051890A4E4F7A5C4768D7408760D8
:10391000434F08373F6807F46041490B484F7A5CD2
:103920004768D740C760F0BD002100F44072B2F58F
:10393000407F0AD13A4A0832116821F4F811414A0D
:1039400002401143364A08321160354A703212681B
:10395000C0F30B031A43324B70331A60704735497A
:103960004439086070473349403908607047364928
:103970000860704701460020294A8C32106820F008
:103980001F004A1E1043264A8C32106070470146C1
:103990000020234A8C32106820F4F8504A1E40EA76
:1039A00002201F4A8C3210607047014600201C4ADA
:1039B0008C32106820F440100843106070470146B4
:1039C0000020174A8C32106820F440000843106031
:1039D000704701460020124A8C32106820F44030B3
:1039E00008431060704719490860704739B10C4AA4
:1039F0003032126802430A4B30331A6006E0084A3C
:103A0000303212688243064B30331A607047F9B186
:103A1000034A343212680243014B34331A601CE00B
:103A200000380240FFFFF6EA10300024003000208A
:103A300000004742800E47420024F40000127A0042
:103A4000C8000020FFFCFF0F5C014742E011474225
:103A50008F4A126882438E4B1A60704739B18C4A84
:103A6000121D126802438A4B1B1D1A6006E0884A29
:103A7000121D12688243864B1B1D1A60704739B1B4
:103A8000834A0C3212680243814B0C331A6006E001
:103A90007F4A0C32126882437D4B0C331A607047A8
:103AA00039B17B4A103212680243794B10331A60E5
:103AB00006E0774A103212688243754B10331A6061
:103AC000704739B1724A243A12680243704B243B62
:103AD0001A6006E06E4A243A126882436C4B243B1B
:103AE0001A60704739B16A4A203A12680243684B3B
:103AF000203B1A6006E0664A203A12688243644B13
:103B0000203B1A60704739B1614A1C3A126802437F
:103B10005F4B1C3B1A6006E05D4A1C3A1268824308
:103B20005B4B1C3B1A60704739B1594A143A126812
:103B30000243574B143B1A6006E0554A143A126888
:103B40008243534B143B1A60704739B1504A103AC4
:103B5000126802434E4B103B1A6006E04C4A103A82
:103B6000126882434A4B103B1A60704739B1484A89
:103B70001C3212680243464B1C331A6006E0444A6A
:103B80001C3212688243424B1C331A60704739B1B1
:103B90003F4A2032126802433D4B20331A6006E050
:103BA0003B4A203212688243394B20331A607047F7
:103BB00039B1374A243212680243354B24331A6034
:103BC00006E0334A243212688243314B24331A60B0
:103BD000704739B12E4A2C32126802432C4B2C33D9
:103BE0001A6006E02A4A2C3212688243284B2C3392
:103BF0001A60704739B1264A303212680243244BAA
:103C000030331A6006E0224A303212688243204B79
:103C100030331A607047012808D11D493C310968CA
:103C200041F008011A4A3C32116007E018493C3162
:103C3000096821F00801164A3C321160704739B119
:103C4000134A273A12780243114B273B1A7006E0B9
:103C50000F4A273A127882430D4B273B1A70704760
:103C60000B484030006840F08070094940310860DE
:103C7000704701460020064A283A12680A400AB1F5
:103C8000012000E000207047014926390870704784
:103C90003438024010B50446FE48844209D101215F
:103CA0004806FFF741FF00214FF00070FFF73CFF8F
:103CB00008E001218806FFF737FF00214FF0806000
:103CC000FFF732FF10BD30B5024600200023146814
:103CD00024F002041460146844F00104146000E04D
:103CE0005B1C546804F001041CB94FF6FF74A34236
:103CF000F6D1546804F001040CB900206CE08C7912
:103D0000012C04D1146844F08004146003E01468AA
:103D100024F080041460CC79012C04D1146844F0A0
:103D20004004146003E0146824F0400414600C7A2A
:103D3000012C04D1146844F02004146003E01468DA
:103D400024F0200414604C7A012C04D1146844F04F
:103D50001004146003E0146824F0100414608C7ADA
:103D6000012C04D1146844F00804146003E01468C2
:103D700024F008041460CC7A012C04D1146844F0B7
:103D80000404146003E0146824F0040414608C78C4
:103D9000A407CD7844EA05640D7944EA05444D79D9
:103DA00044EA05540D886D1E2C43D461146824F038
:103DB00001041460002300E05B1C546804F001045B
:103DC0001CB14FF6FF74A342F6D1546804F001040D
:103DD0000CB1002000E0012030BD10B50021837A35
:103DE000012202FA03F1AC4A126842F00102AA4B26
:103DF0001A60A94A1C3212688A43A74B1C331A6006
:103E0000027BCAB9A44A0C3212688A43A24B0C3313
:103E10001A604288C38842EA03439F4A4032847A48
:103E200042F834300288838842EA03439A4A403297
:103E3000847A02EBC4025360027B012A19D1964AAC
:103E40000C3212680A43944B0C331A604288038880
:103E500042EA0343904A4032847A42F83430C288BE
:103E6000838842EA03438C4A4032847A02EBC402DC
:103E70005360C27A3AB9884A121D12688A43864B47
:103E80001B1D1A6006E0844A121D12680A43824B09
:103E90001B1D1A60028932B97F4A143212688A43A4
:103EA0007D4B14331A600289012A06D17A4A1432F2
:103EB00012680A43784B14331A60427B012A06D1F8
:103EC000754A1C3212680A43734B1C331A60724ADB
:103ED000126822F00102704B1A6010BD002181713E
:103EE000C171017241728172C1728170C17003210E
:103EF0000171022141710121018070476649096801
:103F000041F00101644A11601146096843F60E72DE
:103F10009143614A11601146096841EA002111602C
:103F20001146096821F001011160704721B1026852
:103F300042F48032026003E0026822F480320260C0
:103F40007047E1B1026842F0800202604FF4C27231
:103F5000125842F480734FF4C27213504FF4CA7275
:103F6000125842F480734FF4CA7213504FF4D27255
:103F7000125842F480734FF4D27213501BE002685F
:103F800022F0800202604FF4C272125822F4807351
:103F90004FF4C27213504FF4CA72125822F4807355
:103FA0004FF4CA7213504FF4D272125822F4807335
:103FB0004FF4D2721350704710B502460020936838
:103FC00003F08063B3F1806F00D110E0936803F0D9
:103FD0000063B3F1006F01D1012008E0936803F0A2
:103FE0008053B3F1805F01D1022000E00420042857
:103FF00079D002F5C07303EB00131B6803F00104D2
:1040000002F5C07303EB00131C600B7A7BB94B7A8B
:104010000C8843EA445302F5C07404EB001424688E
:10402000234302F5C07404EB0014236010E00B7A04
:104030004C6843EAC4034C7A234302F5C07404EB92
:1040400000142468234302F5C07404EB00142360B9
:104050008B7A03F00F038B7202F5C07303EB00132E
:104060005B6823F00F0402F5C07303EB00135C6080
:1040700002F5C07303EB00135B688C7A234302F5EF
:10408000C07404EB001463608B7B1C064B7B44EA1A
:10409000034403E000640040006600400B7B44EAF8
:1040A0000323CC7A234302F5C07404EB0014A3600D
:1040B0008B7C1C064B7C44EA03440B7C44EA0323C0
:1040C000CC7B234302F5C07404EB0014E36002F5DB
:1040D000C07303EB00131B6843F0010402F5C073C7
:1040E00003EB00131C6010BD10B50246002321B184
:1040F000012907D002290FD109E09068F94C00EAA4
:1041000004030BE09068F84C00EA040306E09068B2
:10411000F64C00EA040301E0002300BF00BFF44CAA
:10412000181BA34216D007DC83B16FF080601844DF
:1041300070B1022818D111E0B0F5007F10D0ED4C1D
:10414000204448B1B0F5003F0ED10BE002230DE052
:1041500000230BE0002309E0002307E0012305E032
:10416000012303E0012301E0002300BF00BFD8B218
:1041700010BD21B1012907D002290FD109E08268C1
:1041800042F0800282600AE0826842F4004282606B
:1041900005E0826842F40002826000E000BF00BFD8
:1041A000704710B500F5D87303EB01131B6803F0DB
:1041B00004031372137A53B900F5D87303EB011398
:1041C0001B6840F2FF7404EA5353136009E000F5E2
:1041D000D87303EB01131B686FF0604404EAD30348
:1041E000536000F5D87303EB01131B6803F002035F
:1041F000537200F5D87303EB01135B6803F00F03F0
:10420000937200F5D87303EB01135B681B0AD37438
:1042100000F5D87303EB01139B68D37200F5D873D4
:1042200003EB01139B681C0A147300F5D87303EBAE
:1042300001139B681C0C547300F5D87303EB011336
:104240009B681B0E937300F5D87303EB0113DB68B7
:10425000D37300F5D87303EB0113DB681C0A1474E5
:1042600000F5D87303EB0113DB681C0C547400F5E4
:10427000D87303EB0113DB681B0E937421B9C36879
:1042800043F02003C36003E0036943F020030361AC
:1042900010BD21B9C26842F02002C26003E0026989
:1042A00042F02002026170470246002019B9D3682B
:1042B00003F0030006E0012903D1136903F00300B2
:1042C00000E00020704710B502460B4600204FF674
:1042D000FF71BBB9146824F0020444F001041460B7
:1042E00000E0491E546804F00304012C01D00029A9
:1042F000F7D1546804F00304012C01D0002032E00F
:10430000012030E0012B13D1146824F00304146061
:1043100000E0491E546804F003040CB10029F8D1F0
:10432000546804F003040CB100201CE001201AE0E2
:10433000022B17D1146824F0010444F00204146025
:1043400000E0491E546804F00304022C01D0002947
:10435000F7D1546804F00304022C01D0002002E0DD
:10436000012000E0002010BD014600200A6822F074
:10437000010242F002020A604A6802F00302022AC5
:1043800000D10120704701464FF6FF7200200B68F4
:1043900023F002030B6000E0521E4B6803F002039F
:1043A000022B01D1002AF7D14B6803F00203022B44
:1043B00000D001207047014600208A6902F0700099
:1043C0007047014600208A69100E704701460020A0
:1043D0008A69C2F3074070471AB143690B434361CE
:1043E00002E043698B434361704710B502460020E9
:1043F00001F4700343B19369C1F3130423400BB17B
:1044000001202DE000202BE001F0807343B15368C0
:10441000C1F3130423400BB1012021E000201FE071
:1044200001F0006343B19368C1F3130423400BB15F
:10443000012015E0002013E001F0007343B1D368C0
:10444000C1F3130423400BB1012009E0002007E071
:104450001369C1F3130423400BB1012000E00020D5
:1044600010BD0022244B994202D10023836111E048
:10447000C1F3130201F000730BB1C2600AE001F056
:1044800080630BB1026105E001F000630BB1826053
:1044900000E0426070470246002002EA01030BB1CF
:1044A000012000E00020704770B504460D4600264C
:1044B00060692840002872D0B5F5807F69D01DDC86
:1044C000082D42D006DC012D2DD0022D31D0042D37
:1044D0007FD134E0102D3ED0202D42D0402D78D118
:1044E00045E0000003000004000300080000031082
:1044F000000100080001FFF77000F030B5F5004F33
:1045000061D009DCB5F5007F4AD0B5F5806F4DD09C
:10451000B5F5006F5DD150E0B5F5803F2DD0B5F514
:10452000003F56D12FE0A0685549FFF7B4FF06467B
:1045300051E0E0680321FFF7AEFF06464BE0E0687C
:104540000821FFF7A8FF064645E0E0681021FFF7C5
:10455000A2FF06463FE020690321FFF79CFF0646C5
:1045600039E020690821FFF796FF064633E020690D
:104570001021FFF790FF06462DE060680821FFF745
:104580008AFF064627E060681021FFF784FF064691
:1045900021E0A0690121FFF77EFF06461BE01BE03A
:1045A000A0690221FFF777FF064614E0A069042105
:1045B000FFF771FF06460EE00BE0A0697021FFF7E0
:1045C0006AFF064607E060680421FFF764FF0646BD
:1045D00001E0002600BF00E00026304670BDB1F5C6
:1045E000007F3AD00FDC202928D006DC01291CD01E
:1045F00004291DD0082940D11DE0402921D0B1F562
:10460000807F3AD126E0B1F5004F31D006DCB1F51C
:10461000806F25D0B1F5006F2FD124E0B1F5803F38
:1046200012D0B1F5003F28D111E0154A826025E093
:104630000822C26022E01022C2601FE0082202614C
:104640001CE01022026119E00822426016E01022EC
:10465000426013E00422426010E0042242600DE058
:10466000042242600AE0002282610422426005E0E6
:10467000002282610422426000E000BF00BF704758
:1046800001010100704700000FB4044910B503AAEE
:10469000029800F013F910BC5DF814FBBC00002078
:1046A0002DE9F0410E460446002020622046E168D4
:1046B000884730B3252805D0D4E901219047206AE6
:1046C000401CF2E7E168204600278847050018D023
:1046D000A5F14100192802D820354FF40067324671
:1046E000294620462760FBF789FD40B1012804D008
:1046F000F61D26F007060836D8E7361DD6E7284609
:10470000DAE7206ABDE8F08170B50C460546012A5B
:1047100005D02878800600D5EA69002302E001234D
:1047200005E05B1C934202D2E05C0028F9D1A86945
:10473000E618C01AA861286A184428622846AFF310
:10474000008004E0D5E9012114F8010B9047B44240
:10475000F8D32846AFF3008070BD00002DE9F0418A
:104760000646002410687529314616A510D0AFF30F
:104770000080002802DA404213A507E031688A076A
:1047800001D512A502E0490704D511A5012401E0D5
:10479000AFF3008000210A2206F1240709E0B0FBF4
:1047A000F2FCB0FBF2F302FB1C00303078541846E8
:1047B000491C0028F3D123462A463046BDE8F04183
:1047C00000F00CB8000000002D0000002B000000DD
:1047D0002000000070477047704770472DE9F04790
:1047E0000D4699469246044600F124080168880661
:1047F00004D5E06921F01001216000E00120A84209
:1048000001DD471B00E00027A1697A1902EB0900CE
:10481000081AA0612078C00602D42046AFF30080B9
:10482000002608E0D4E901211AF806009047206A22
:10483000401C761C20624E45F4DB2078C0060AD569
:104840002046AFF3008006E0D4E9012130209047F4
:10485000206A401C2062381EA7F10107F4DC07E043
:10486000D4E9012118F805009047206A401C206215
:10487000281EA5F10105F3DC2046AFF30080207867
:10488000000602D50220BDE8F0870120FBE710B545
:10489000436913B1AFF3008001E0FFF735FF01205A
:1048A00010BD127800F124010A7000224A70012222
:1048B000EDE711684FF0FF32E9E70000074B70B5F4
:1048C0000D467B4400F011F80446284600F020F81D
:1048D00010B14FF0FF3070BD204670BD89D6FFFF8C
:1048E00001694A1C02610878704700B58FB0CDE9B4
:1048F00001310021059105497944CDE903101146A4
:104900006846FFF7CDFE0FB000BD0000E5FFFFFFDA
:10491000007B00F080007047754600F029F8AE4635
:1049200005006946534620F00700854618B020B5BB
:10493000FDF73AFCBDE820404FF000064FF00007BD
:104940004FF000084FF0000B21F00701AC46ACE837
:10495000C009ACE8C009ACE8C009ACE8C0098D46A4
:1049600070470446AFF300802046FBF75EFC000072
:1049700000487047840400204FF04070E1EE100AB8
:1049800070470000A449000800000020D800000083
:10499000C40100087C4A0008D8000020100A00006A
:1049A000E00100080000000000000000000000001E
:1049B00000000000000000000000000000000000F7
:1049C00000000000000000000000000000000000E7
:1049D0000000000000000000007A030A0000000050
:1049E000000000000102030406070809010000009E
:1049F000400100206001002080010020A001002073
:104A0000C0010020000000000000000000000000C5
:104A10000000000000000000000000000000000096
:104A20000000000000000000000000000000000086
:104A30000000000000000000000000000000000076
:104A40000000000000000000000000005157455227
:104A500041534446475A58435642485400000000C8
:104A60000000000000000000000000000000000046
:0C4A700001020304010203040607080908
:040000050800018965
:00000001FF
